{
  "contractName": "Set",
  "abi": [
    {
      "constant": false,
      "inputs": [
        {
          "name": "self",
          "type": "Set.ApplicantData storage"
        },
        {
          "name": "ssn",
          "type": "uint256"
        },
        {
          "name": "name",
          "type": "string"
        }
      ],
      "name": "addApplicant",
      "outputs": [
        {
          "name": "",
          "type": "bool"
        }
      ],
      "payable": false,
      "stateMutability": "nonpayable",
      "type": "function"
    },
    {
      "constant": false,
      "inputs": [
        {
          "name": "self",
          "type": "Set.ApplicantData storage"
        },
        {
          "name": "ssn",
          "type": "uint256"
        },
        {
          "name": "result",
          "type": "bool"
        }
      ],
      "name": "addInterviewerResult",
      "outputs": [],
      "payable": false,
      "stateMutability": "nonpayable",
      "type": "function"
    },
    {
      "constant": true,
      "inputs": [
        {
          "name": "self",
          "type": "Set.ApplicantData storage"
        },
        {
          "name": "ssn",
          "type": "uint256"
        }
      ],
      "name": "canAddInterviewFeedback",
      "outputs": [
        {
          "name": "",
          "type": "bool"
        }
      ],
      "payable": false,
      "stateMutability": "view",
      "type": "function"
    },
    {
      "constant": true,
      "inputs": [
        {
          "name": "self",
          "type": "Set.ApplicantData storage"
        },
        {
          "name": "ssn",
          "type": "uint256"
        }
      ],
      "name": "getInterviewResult",
      "outputs": [
        {
          "name": "",
          "type": "int8"
        }
      ],
      "payable": false,
      "stateMutability": "view",
      "type": "function"
    },
    {
      "constant": true,
      "inputs": [
        {
          "name": "self",
          "type": "Set.ApplicantData storage"
        },
        {
          "name": "ssn",
          "type": "uint256"
        }
      ],
      "name": "contains",
      "outputs": [
        {
          "name": "",
          "type": "bool"
        }
      ],
      "payable": false,
      "stateMutability": "view",
      "type": "function"
    }
  ],
  "bytecode": "0x6060604052341561000f57600080fd5b6105df8061001e6000396000f30060606040526004361061006d576000357c0100000000000000000000000000000000000000000000000000000000900463ffffffff16806320be1591146100725780633ddba4fa1461009e5780635ce77167146100d7578063e0fe70ab14610153578063f4dcaabb1461018e575b600080fd5b61009c600480803590602001909190803590602001909190803515159060200190919050506101c7565b005b6100bd60048080359060200190919080359060200190919050506101fc565b604051808215151515815260200191505060405180910390f35b610139600480803590602001909190803590602001909190803590602001908201803590602001908080601f016020809104026020016040519081016040528093929190818152602001838380828437820191505050505050919050506102d7565b604051808215151515815260200191505060405180910390f35b61017260048080359060200190919080359060200190919050506103da565b604051808260000b60000b815260200191505060405180910390f35b6101ad60048080359060200190919080359060200190919050506104de565b604051808215151515815260200191505060405180910390f35b8083600001600084815260200190815260200160002060010160016101000a81548160ff021916908315150217905550505050565b600082600001600083815260200190815260200160002060010160009054906101000a900460ff16156102cc57600283600001600084815260200190815260200160002060010160029054906101000a900460ff1660ff1610151561026057600080fd5b600083600001600084815260200190815260200160002060010160029054906101000a900460ff1660ff1611156102c35782600001600083815260200190815260200160002060010160019054906101000a900460ff1615156102c257600080fd5b5b600190506102d1565b600090505b92915050565b600083600001600084815260200190815260200160002060010160009054906101000a900460ff161561030d57600090506103d3565b600184600001600085815260200190815260200160002060010160006101000a81548160ff02191690831515021790555081846000016000858152602001908152602001600020600001908051906020019061036a92919061050e565b50600084600001600085815260200190815260200160002060010160016101000a81548160ff021916908315150217905550600084600001600085815260200190815260200160002060010160026101000a81548160ff021916908360ff160217905550600190505b9392505050565b60008083600001600084815260200190815260200160002060010160029054906101000a900460ff1660ff169050600081141561041a57600091506104d7565b600181141561047f5783600001600084815260200190815260200160002060010160019054906101000a900460ff161561045757600191506104d7565b7fffffffffffffffffffffffffffffffffffffffffffffffffffffffffffffffff91506104d7565b83600001600084815260200190815260200160002060010160019054906101000a900460ff16156104b357600291506104d7565b7ffffffffffffffffffffffffffffffffffffffffffffffffffffffffffffffffe91505b5092915050565b600082600001600083815260200190815260200160002060010160009054906101000a900460ff16905092915050565b828054600181600116156101000203166002900490600052602060002090601f016020900481019282601f1061054f57805160ff191683800117855561057d565b8280016001018555821561057d579182015b8281111561057c578251825591602001919060010190610561565b5b50905061058a919061058e565b5090565b6105b091905b808211156105ac576000816000905550600101610594565b5090565b905600a165627a7a72305820f2dac9fbb6ac9f2622d59e45c4fd97ef4597845e6ea979c54a6c82a28ae0568f0029",
  "source": "pragma solidity ^0.4.18;\n\nlibrary Set {\n    \n    struct Data \n    { \n        string applicantName;\n        bool isApplied;\n        bool isInterViewPassed;\n        uint8 interviewCounts;\n    }\n    \n    struct ApplicantData { mapping(uint => Data) flags; }\n\n    \n    function addApplicant(ApplicantData storage self, uint ssn,string name)\n    public \n    returns (bool)\n    {\n        if (self.flags[ssn].isApplied) \n            return false; // Data present here\n        self.flags[ssn].isApplied = true;\n        self.flags[ssn].applicantName = name;\n        self.flags[ssn].isInterViewPassed = false;\n        self.flags[ssn].interviewCounts = 0;\n        return true;\n    }\n    \n    function addInterviewerResult(ApplicantData storage self,uint ssn, bool result)\n    public\n    {\n        self.flags[ssn].isInterViewPassed = result;\n    }\n    \n    function canAddInterviewFeedback(ApplicantData storage self,uint ssn) \n    public\n    constant\n    returns (bool)\n    {\n        if (self.flags[ssn].isApplied) {\n            // max only 2 interview possible else throw\n            require(self.flags[ssn].interviewCounts < 2); \n                // No previous interviews are failed\n                if (self.flags[ssn].interviewCounts > 0) {\n                    require (self.flags[ssn].isInterViewPassed); \n                }\n                return true;\n        }\n        return false;\n    }\n\n    function getInterviewResult(ApplicantData storage self,uint ssn)\n    public\n    constant returns(int8)\n    {\n        uint intCount = self.flags[ssn].interviewCounts;\n        if (intCount == 0) {\n            return 0; // Interviews pending\n        } else if (intCount == 1) {\n            if (self.flags[ssn].isInterViewPassed) {\n                return 1; // to next level\n            }\n            return -1; // Fail\n        } else {\n            if (self.flags[ssn].isInterViewPassed) {\n                return 2; // selected\n            }\n            return -2; // Candidate rejected in second interview\n        }\n    }\n\n    function contains(ApplicantData storage self, uint ssn) \n    public \n    constant returns (bool)\n    {\n        return self.flags[ssn].isApplied;\n    }\n}\n\ncontract Talio {\n    \n    event notifyInterviewers(uint jobId, uint ssn);\n    event notifyCandidate(uint jobId, uint ssn, string result);\n    \n    uint constant maxJobTypes = 5;\n    address talioOwner;\n    \n    // Only once a candidate can apply for a position\n    using Set for Set.ApplicantData;\n    mapping(uint => Set.ApplicantData) applications;\n\n    // Structure job openings  in the company\n    struct Opening {\n        uint8 jobType;\n        bool isFilled;\n        uint8 numberOfApplicants;\n    }\n    \n    struct interviewSchedule {\n        uint jobId;\n        uint ssn;\n    }\n    \n    Opening[] openings;\n    address[] interviewers;\n    \n    mapping(uint => interviewSchedule[]) schedules;\n    // Max 5 types of jobs \n    uint[][maxJobTypes] applicants; // !! Note Opposite way of declaring !! \n\n    modifier onlyIfTalioOwner() {\n        require(msg.sender == talioOwner);\n        _;\n    }\n    \n    modifier ifNotAlreadyAppliedForThisJob(uint ssn, uint jobId) {\n        require(!applications[jobId].contains(ssn));\n        _;\n    }\n    \n    modifier ifInterviewersAvailable() {\n        require(interviewers.length > 0);\n        _;\n    }\n    \n    modifier ifInterviewerNumberAvailable(uint position) {\n        require(position <= interviewers.length );\n        require(position >= 0 );\n        require(position < maxJobTypes); // MAX number of possible interviewers (1 per job type)\n        _;\n    }\n    \n    modifier onlyIfAuthorizedInterviewer(uint jobId, uint ssn) {\n        // Assumption : Same person will interview twice\n         require (interviewers[openings[jobId].jobType] == msg.sender);\n        _;\n    }    \n    \n    function Talio() \n    public\n    {\n        talioOwner = msg.sender;\n    }\n    \n    function addInterviewer(address newInterviewer, uint interviewerNumber) public\n    onlyIfTalioOwner()\n    ifInterviewerNumberAvailable(interviewerNumber)\n    {\n        if (interviewerNumber == interviewers.length)\n        {\n            interviewers.push(newInterviewer);\n        }\n        else\n        {\n            interviewers[interviewerNumber] = newInterviewer;\n        }\n    }\n\n    \n    function openNewPosition(uint8 jobType) \n    public onlyIfTalioOwner\n    {\n        Opening memory newOpeninng;\n        \n        newOpeninng.jobType = jobType;\n        newOpeninng.isFilled = false;\n        newOpeninng.numberOfApplicants = 0;\n        \n        openings.push(newOpeninng);\n        \n    }\n    \n    function createNewApplication(uint jobId, uint ssn, string name)\n    internal\n    {\n        applications[jobId].addApplicant(ssn, name);\n        openings[jobId].numberOfApplicants++;\n    }\n    \n    function applyForJob(uint jobId, uint ssn, string name) \n    public\n    ifNotAlreadyAppliedForThisJob(ssn,jobId)\n    ifInterviewersAvailable()\n    {\n        \n        createNewApplication(jobId,ssn,name);\n        \n        applicants[uint(openings[jobId].jobType)].push(ssn);\n        interviewSchedule memory newSchedule;\n        newSchedule.jobId = jobId;\n        newSchedule.ssn = ssn;\n        schedules[openings[jobId].jobType].push(newSchedule);\n        \n        notifyInterviewers(jobId, ssn);\n\n    }\n    \n    // Tansactions for interviewer\n    \n    function sendFeedback(uint jobid, uint ssn, bool isSelected)\n    public \n    onlyIfAuthorizedInterviewer(jobid,ssn)\n    returns(string)\n    {\n       string memory result = \"All interviews are over for this candidate\";\n\n        if (applications[jobid].canAddInterviewFeedback(ssn)) {\n            applications[jobid].addInterviewerResult(ssn,isSelected);\n            result = \"Congratulations, Please wait for next interview\"; // case 1\n            int intResult = applications[jobid].getInterviewResult(ssn);\n            if (intResult < 0) {\n                result = \"Sorry!, Please try your luck again\";\n            } else if (intResult == 2) {\n                result = \"Congratulations, We are happy to offer this job\";\n            }\n            notifyCandidate(jobid,ssn,result);\n        }\n        return result;\n    }\n    \n    function readMaxOpenings() \n    public\n    constant\n    returns (uint)\n    {\n        return openings.length;\n    }\n    \n    function readJobDetails(uint jobid)\n    public\n    constant\n    returns(uint8 jobType, string jobDescription, bool isFilled, uint numberOfApplicants)\n    {\n        require(jobid < openings.length);\n        string memory desc = \"iOS Developer\"; // if job type is 1!\n        if (openings[jobid].jobType == 2) {\n            desc = \"Android Developer\";\n        } else if (openings[jobid].jobType == 3) {\n            desc = \"Java Developer\";\n        } else if (openings[jobid].jobType == 4) {\n          desc = \"Blockchain Developer\";\n        }\n        \n        return(openings[jobid].jobType,desc,openings[jobid].isFilled,openings[jobid].numberOfApplicants);\n    }\n    \n    function isTalioOwner()\n    public onlyIfTalioOwner()\n    constant\n    returns(bool)\n    {\n        return true;\n    }\n    \n    function isAuthorizedInterviewer(uint8 jobType)\n    public\n    constant\n    returns(bool)\n    {\n        require(interviewers[jobType] == msg.sender);\n        return true;\n    }\n \n}",
  "sourcePath": "/Users/girishadiga/Projects/ethereum/talio/contracts/SimpleTalio.sol",
  "compiler": {
    "name": "solc",
    "version": "0.4.19+commit.c4cbbb05.Emscripten.clang"
  },
  "schemaVersion": "1.0.1",
  "updatedAt": "2018-02-15T16:35:08.868Z"
}