{
  "contractName": "Talio",
  "abi": [
    {
      "constant": true,
      "inputs": [
        {
          "name": "interviewer",
          "type": "address"
        }
      ],
      "name": "isEligibleInterviewer",
      "outputs": [
        {
          "name": "",
          "type": "int256"
        }
      ],
      "payable": false,
      "stateMutability": "view",
      "type": "function"
    },
    {
      "constant": true,
      "inputs": [
        {
          "name": "jobtype",
          "type": "uint256"
        }
      ],
      "name": "getMaxScheduleCouts",
      "outputs": [
        {
          "name": "",
          "type": "uint256"
        }
      ],
      "payable": false,
      "stateMutability": "view",
      "type": "function"
    },
    {
      "constant": true,
      "inputs": [],
      "name": "readMaxOpenings",
      "outputs": [
        {
          "name": "",
          "type": "uint256"
        }
      ],
      "payable": false,
      "stateMutability": "view",
      "type": "function"
    },
    {
      "constant": true,
      "inputs": [
        {
          "name": "jobid",
          "type": "uint256"
        }
      ],
      "name": "readJobDetails",
      "outputs": [
        {
          "name": "jobType",
          "type": "uint8"
        },
        {
          "name": "isFilled",
          "type": "bool"
        },
        {
          "name": "numberOfApplicants",
          "type": "uint256"
        },
        {
          "name": "jid",
          "type": "uint256"
        }
      ],
      "payable": false,
      "stateMutability": "view",
      "type": "function"
    },
    {
      "constant": false,
      "inputs": [
        {
          "name": "jobid",
          "type": "uint256"
        }
      ],
      "name": "closeOpening",
      "outputs": [
        {
          "name": "",
          "type": "bool"
        }
      ],
      "payable": false,
      "stateMutability": "nonpayable",
      "type": "function"
    },
    {
      "constant": true,
      "inputs": [],
      "name": "isTalioOwner",
      "outputs": [
        {
          "name": "",
          "type": "bool"
        }
      ],
      "payable": false,
      "stateMutability": "view",
      "type": "function"
    },
    {
      "constant": false,
      "inputs": [
        {
          "name": "newInterviewer",
          "type": "address"
        },
        {
          "name": "interviewerNumber",
          "type": "uint256"
        }
      ],
      "name": "addInterviewer",
      "outputs": [
        {
          "name": "",
          "type": "uint256"
        }
      ],
      "payable": false,
      "stateMutability": "nonpayable",
      "type": "function"
    },
    {
      "constant": false,
      "inputs": [
        {
          "name": "jobType",
          "type": "uint8"
        }
      ],
      "name": "openNewPosition",
      "outputs": [
        {
          "name": "",
          "type": "uint256"
        }
      ],
      "payable": false,
      "stateMutability": "nonpayable",
      "type": "function"
    },
    {
      "constant": false,
      "inputs": [
        {
          "name": "jobid",
          "type": "uint256"
        },
        {
          "name": "ssn",
          "type": "uint256"
        },
        {
          "name": "isSelected",
          "type": "bool"
        }
      ],
      "name": "sendFeedback",
      "outputs": [
        {
          "name": "",
          "type": "string"
        }
      ],
      "payable": false,
      "stateMutability": "nonpayable",
      "type": "function"
    },
    {
      "constant": true,
      "inputs": [
        {
          "name": "index",
          "type": "uint256"
        },
        {
          "name": "jobtype",
          "type": "uint256"
        }
      ],
      "name": "readSchedule",
      "outputs": [
        {
          "name": "jobid",
          "type": "uint256"
        },
        {
          "name": "ssn",
          "type": "uint256"
        }
      ],
      "payable": false,
      "stateMutability": "view",
      "type": "function"
    },
    {
      "constant": false,
      "inputs": [
        {
          "name": "jobId",
          "type": "uint256"
        },
        {
          "name": "ssn",
          "type": "uint256"
        },
        {
          "name": "name",
          "type": "string"
        }
      ],
      "name": "applyForJob",
      "outputs": [],
      "payable": false,
      "stateMutability": "nonpayable",
      "type": "function"
    },
    {
      "constant": true,
      "inputs": [
        {
          "name": "jobType",
          "type": "uint8"
        }
      ],
      "name": "isAuthorizedInterviewer",
      "outputs": [
        {
          "name": "",
          "type": "bool"
        }
      ],
      "payable": false,
      "stateMutability": "view",
      "type": "function"
    },
    {
      "inputs": [],
      "payable": false,
      "stateMutability": "nonpayable",
      "type": "constructor"
    },
    {
      "anonymous": false,
      "inputs": [
        {
          "indexed": false,
          "name": "jobId",
          "type": "uint256"
        },
        {
          "indexed": false,
          "name": "ssn",
          "type": "uint256"
        }
      ],
      "name": "notifyInterviewers",
      "type": "event"
    },
    {
      "anonymous": false,
      "inputs": [
        {
          "indexed": false,
          "name": "jobId",
          "type": "uint256"
        },
        {
          "indexed": false,
          "name": "ssn",
          "type": "uint256"
        },
        {
          "indexed": false,
          "name": "result",
          "type": "string"
        }
      ],
      "name": "notifyCandidate",
      "type": "event"
    }
  ],
  "bytecode": "0x6060604052341561000f57600080fd5b336000806101000a81548173ffffffffffffffffffffffffffffffffffffffff021916908373ffffffffffffffffffffffffffffffffffffffff1602179055506115328061005e6000396000f3006060604052600436106100ba576000357c0100000000000000000000000000000000000000000000000000000000900463ffffffff168063053e94c4146100bf5780631a5c90501461010c5780631f324d58146101435780633b06038b1461016c57806341240fe5146101c257806350a1f339146101fd57806354cedeb61461022a578063613d6fbb146102805780636772ed71146102ba5780639ac9a20f1461036a578063e5b870e4146103b1578063f27d7de714610420575b600080fd5b34156100ca57600080fd5b6100f6600480803573ffffffffffffffffffffffffffffffffffffffff1690602001909190505061045e565b6040518082815260200191505060405180910390f35b341561011757600080fd5b61012d6004808035906020019091905050610520565b6040518082815260200191505060405180910390f35b341561014e57600080fd5b610156610540565b6040518082815260200191505060405180910390f35b341561017757600080fd5b61018d600480803590602001909190505061054d565b604051808560ff1660ff1681526020018415151515815260200183815260200182815260200194505050505060405180910390f35b34156101cd57600080fd5b6101e360048080359060200190919050506105fd565b604051808215151515815260200191505060405180910390f35b341561020857600080fd5b6102106106c2565b604051808215151515815260200191505060405180910390f35b341561023557600080fd5b61026a600480803573ffffffffffffffffffffffffffffffffffffffff16906020019091908035906020019091905050610726565b6040518082815260200191505060405180910390f35b341561028b57600080fd5b6102a4600480803560ff16906020019091905050610890565b6040518082815260200191505060405180910390f35b34156102c557600080fd5b6102ef600480803590602001909190803590602001909190803515159060200190919050506109c5565b6040518080602001828103825283818151815260200191508051906020019080838360005b8381101561032f578082015181840152602081019050610314565b50505050905090810190601f16801561035c5780820380516001836020036101000a031916815260200191505b509250505060405180910390f35b341561037557600080fd5b6103946004808035906020019091908035906020019091905050610ece565b604051808381526020018281526020019250505060405180910390f35b34156103bc57600080fd5b61041e600480803590602001909190803590602001909190803590602001908201803590602001908080601f01602080910402602001604051908101604052809392919081815260200183838082843782019150505050505091905050610f40565b005b341561042b57600080fd5b610444600480803560ff1690602001909190505061115d565b604051808215151515815260200191505060405180910390f35b600080600090505b6003805490508110156104f6578273ffffffffffffffffffffffffffffffffffffffff1660038281548110151561049957fe5b906000526020600020900160009054906101000a900473ffffffffffffffffffffffffffffffffffffffff1673ffffffffffffffffffffffffffffffffffffffff1614156104e95780915061051a565b8080600101915050610466565b7fffffffffffffffffffffffffffffffffffffffffffffffffffffffffffffffff91505b50919050565b600060046000838152602001908152602001600020805490509050919050565b6000600280549050905090565b6000806000806002805490508510151561056657600080fd5b60028581548110151561057557fe5b906000526020600020900160000160009054906101000a900460ff166002868154811015156105a057fe5b906000526020600020900160000160019054906101000a900460ff166002878154811015156105cb57fe5b906000526020600020900160000160029054906101000a900460ff16878160ff16915093509350935093509193509193565b60008060009054906101000a900473ffffffffffffffffffffffffffffffffffffffff1673ffffffffffffffffffffffffffffffffffffffff163373ffffffffffffffffffffffffffffffffffffffff1614151561065a57600080fd5b600160028381548110151561066b57fe5b906000526020600020900160000160016101000a81548160ff02191690831515021790555060028281548110151561069f57fe5b906000526020600020900160000160019054906101000a900460ff169050919050565b60008060009054906101000a900473ffffffffffffffffffffffffffffffffffffffff1673ffffffffffffffffffffffffffffffffffffffff163373ffffffffffffffffffffffffffffffffffffffff1614151561071f57600080fd5b6001905090565b60008060009054906101000a900473ffffffffffffffffffffffffffffffffffffffff1673ffffffffffffffffffffffffffffffffffffffff163373ffffffffffffffffffffffffffffffffffffffff1614151561078357600080fd5b81600380549050811115151561079857600080fd5b600081101515156107a857600080fd5b6005811015156107b757600080fd5b60038054905083141561082c57600380548060010182816107d89190611349565b9160005260206000209001600086909190916101000a81548173ffffffffffffffffffffffffffffffffffffffff021916908373ffffffffffffffffffffffffffffffffffffffff16021790555050610886565b8360038481548110151561083c57fe5b906000526020600020900160006101000a81548173ffffffffffffffffffffffffffffffffffffffff021916908373ffffffffffffffffffffffffffffffffffffffff1602179055505b8291505092915050565b600061089a611375565b6000809054906101000a900473ffffffffffffffffffffffffffffffffffffffff1673ffffffffffffffffffffffffffffffffffffffff163373ffffffffffffffffffffffffffffffffffffffff161415156108f557600080fd5b82816000019060ff16908160ff168152505060008160200190151590811515815250506000816040019060ff16908160ff16815250506002805480600101828161093f919061139f565b9160005260206000209001600083909190915060008201518160000160006101000a81548160ff021916908360ff16021790555060208201518160000160016101000a81548160ff02191690831515021790555060408201518160000160026101000a81548160ff021916908360ff160217905550505050600280549050915050919050565b6109cd6113cb565b6109d56113cb565b600085853373ffffffffffffffffffffffffffffffffffffffff166003600284815481101515610a0157fe5b906000526020600020900160000160009054906101000a900460ff1660ff16815481101515610a2c57fe5b906000526020600020900160009054906101000a900473ffffffffffffffffffffffffffffffffffffffff1673ffffffffffffffffffffffffffffffffffffffff16141515610a7a57600080fd5b606060405190810160405280602a81526020017f416c6c20696e746572766965777320617265206f76657220666f72207468697381526020017f2063616e6469646174650000000000000000000000000000000000000000000081525093506001600089815260200190815260200160002073__Set___________________________________633ddba4fa9091896000604051602001526040518363ffffffff167c0100000000000000000000000000000000000000000000000000000000028152600401808381526020018281526020019250505060206040518083038186803b1515610b6857600080fd5b6102c65a03f41515610b7957600080fd5b5050506040518051905015610ec0576001600089815260200190815260200160002073__Set___________________________________6320be1591909189896040518463ffffffff167c01000000000000000000000000000000000000000000000000000000000281526004018084815260200183815260200182151515158152602001935050505060006040518083038186803b1515610c1a57600080fd5b6102c65a03f41515610c2b57600080fd5b505050606060405190810160405280602f81526020017f436f6e67726174756c6174696f6e732c20506c65617365207761697420666f7281526020017f206e65787420696e74657276696577000000000000000000000000000000000081525093506001600089815260200190815260200160002073__Set___________________________________63e0fe70ab9091896000604051602001526040518363ffffffff167c0100000000000000000000000000000000000000000000000000000000028152600401808381526020018281526020019250505060206040518083038186803b1515610d1c57600080fd5b6102c65a03f41515610d2d57600080fd5b5050506040518051905060000b92506000831215610da957606060405190810160405280602281526020017f536f727279212c20506c656173652074727920796f7572206c75636b2061676181526020017f696e0000000000000000000000000000000000000000000000000000000000008152509350610e13565b6002831415610e1257606060405190810160405280602f81526020017f436f6e67726174756c6174696f6e732c2057652061726520686170707920746f81526020017f206f666665722074686973206a6f62000000000000000000000000000000000081525093505b5b7fd1d08c9cb88ed24b0d3e225c43806559dd407e6d3414e1072ab4cdd13dfac2308888866040518084815260200183815260200180602001828103825283818151815260200191508051906020019080838360005b83811015610e83578082015181840152602081019050610e68565b50505050905090810190601f168015610eb05780820380516001836020036101000a031916815260200191505b5094505050505060405180910390a15b839450505050509392505050565b6000806004600084815260200190815260200160002084815481101515610ef157fe5b9060005260206000209060020201600001546004600085815260200190815260200160002085815481101515610f2357fe5b906000526020600020906002020160010154915091509250929050565b610f486113df565b82846001600082815260200190815260200160002073__Set___________________________________63f4dcaabb9091846000604051602001526040518363ffffffff167c0100000000000000000000000000000000000000000000000000000000028152600401808381526020018281526020019250505060206040518083038186803b1515610fd957600080fd5b6102c65a03f41515610fea57600080fd5b5050506040518051905015151561100057600080fd5b600060038054905011151561101457600080fd5b61101f8686866111df565b600560028781548110151561103057fe5b906000526020600020900160000160009054906101000a900460ff1660ff1660058110151561105b57fe5b01805480600101828161106e91906113f9565b9160005260206000209001600087909190915055508583600001818152505084836020018181525050600460006002888154811015156110aa57fe5b906000526020600020900160000160009054906101000a900460ff1660ff16815260200190815260200160002080548060010182816110e99190611425565b9160005260206000209060020201600085909190915060008201518160000155602082015181600101555050507f3af00243139f061d8a124edf9a44153feb59f36f61b66cadf9e5f3d30d3e81a58686604051808381526020018281526020019250505060405180910390a1505050505050565b60003373ffffffffffffffffffffffffffffffffffffffff1660038360ff1681548110151561118857fe5b906000526020600020900160009054906101000a900473ffffffffffffffffffffffffffffffffffffffff1673ffffffffffffffffffffffffffffffffffffffff161415156111d657600080fd5b60019050919050565b6001600084815260200190815260200160002073__Set___________________________________635ce77167909184846000604051602001526040518463ffffffff167c01000000000000000000000000000000000000000000000000000000000281526004018084815260200183815260200180602001828103825283818151815260200191508051906020019080838360005b83811015611290578082015181840152602081019050611275565b50505050905090810190601f1680156112bd5780820380516001836020036101000a031916815260200191505b5094505050505060206040518083038186803b15156112db57600080fd5b6102c65a03f415156112ec57600080fd5b505050604051805190505060028381548110151561130657fe5b9060005260206000209001600001600281819054906101000a900460ff168092919060010191906101000a81548160ff021916908360ff16021790555050505050565b8154818355818115116113705781836000526020600020918201910161136f9190611457565b5b505050565b606060405190810160405280600060ff168152602001600015158152602001600060ff1681525090565b8154818355818115116113c6578183600052602060002091820191016113c5919061147c565b5b505050565b602060405190810160405280600081525090565b604080519081016040528060008152602001600081525090565b8154818355818115116114205781836000526020600020918201910161141f9190611457565b5b505050565b8154818355818115116114525760020281600202836000526020600020918201910161145191906114d7565b5b505050565b61147991905b8082111561147557600081600090555060010161145d565b5090565b90565b6114d491905b808211156114d057600080820160006101000a81549060ff02191690556000820160016101000a81549060ff02191690556000820160026101000a81549060ff021916905550600101611482565b5090565b90565b61150391905b808211156114ff576000808201600090556001820160009055506002016114dd565b5090565b905600a165627a7a72305820db62cd764c17a3fc62548d14fd1f44e6f3717c57726efd4cc85ed430fbd6f42e0029",
  "source": "pragma solidity ^0.4.18;\n\nlibrary Set {\n    \n    struct Data \n    { \n        string applicantName;\n        bool isApplied;\n        bool isInterViewPassed;\n        uint8 interviewCounts;\n    }\n    \n    struct ApplicantData { mapping(uint => Data) flags; }\n\n    \n    function addApplicant(ApplicantData storage self, uint ssn,string name)\n    public \n    returns (bool)\n    {\n        if (self.flags[ssn].isApplied) \n            return false; // Data present here\n        self.flags[ssn].isApplied = true;\n        self.flags[ssn].applicantName = name;\n        self.flags[ssn].isInterViewPassed = false;\n        self.flags[ssn].interviewCounts = 0;\n        return true;\n    }\n    \n    function addInterviewerResult(ApplicantData storage self,uint ssn, bool result)\n    public\n    {\n        self.flags[ssn].isInterViewPassed = result;\n    }\n    \n    function canAddInterviewFeedback(ApplicantData storage self,uint ssn) \n    public\n    constant\n    returns (bool)\n    {\n        if (self.flags[ssn].isApplied) {\n            // max only 2 interview possible else throw\n            require(self.flags[ssn].interviewCounts < 2); \n                // No previous interviews are failed\n                if (self.flags[ssn].interviewCounts > 0) {\n                    require (self.flags[ssn].isInterViewPassed); \n                }\n                return true;\n        }\n        return false;\n    }\n\n    function getInterviewResult(ApplicantData storage self,uint ssn)\n    public\n    constant returns(int8)\n    {\n        uint intCount = self.flags[ssn].interviewCounts;\n        if (intCount == 0) {\n            return 0; // Interviews pending\n        } else if (intCount == 1) {\n            if (self.flags[ssn].isInterViewPassed) {\n                return 1; // to next level\n            }\n            return -1; // Fail\n        } else {\n            if (self.flags[ssn].isInterViewPassed) {\n                return 2; // selected\n            }\n            return -2; // Candidate rejected in second interview\n        }\n    }\n\n    function contains(ApplicantData storage self, uint ssn) \n    public \n    constant returns (bool)\n    {\n        return self.flags[ssn].isApplied;\n    }\n}\n\ncontract Talio {\n    \n    event notifyInterviewers(uint jobId, uint ssn);\n    event notifyCandidate(uint jobId, uint ssn, string result);\n    \n    uint constant maxJobTypes = 5;\n    address talioOwner;\n    \n    // Only once a candidate can apply for a position\n    using Set for Set.ApplicantData;\n    mapping(uint => Set.ApplicantData) applications;\n\n    // Structure job openings  in the company\n    struct Opening {\n        uint8 jobType;\n        bool isFilled;\n        uint8 numberOfApplicants;\n    }\n    \n    struct interviewSchedule {\n        uint jobId;\n        uint ssn;\n    }\n    \n    Opening[] openings;\n    address[] interviewers;\n    \n    mapping(uint => interviewSchedule[]) schedules;\n    // Max 5 types of jobs \n    uint[][maxJobTypes] applicants; // !! Note Opposite way of declaring !! \n\n    modifier onlyIfTalioOwner() {\n        require(msg.sender == talioOwner);\n        _;\n    }\n    \n    modifier ifNotAlreadyAppliedForThisJob(uint ssn, uint jobId) {\n        require(!applications[jobId].contains(ssn));\n        _;\n    }\n    \n    modifier ifInterviewersAvailable() {\n        require(interviewers.length > 0);\n        _;\n    }\n    \n    modifier ifInterviewerNumberAvailable(uint position) {\n        require(position <= interviewers.length );\n        require(position >= 0 );\n        require(position < maxJobTypes); // MAX number of possible interviewers (1 per job type)\n        _;\n    }\n    \n    modifier onlyIfAuthorizedInterviewer(uint jobId, uint ssn) {\n        // Assumption : Same person will interview twice\n         require (interviewers[openings[jobId].jobType] == msg.sender);\n        _;\n    }    \n    \n    function Talio() \n    public\n    {\n        talioOwner = msg.sender;\n    }\n    \n    function addInterviewer(address newInterviewer, uint interviewerNumber) \n    public onlyIfTalioOwner()\n    ifInterviewerNumberAvailable(interviewerNumber)\n    returns(uint)\n    {\n        if (interviewerNumber == interviewers.length)\n        {\n            interviewers.push(newInterviewer);\n        }\n        else\n        {\n            interviewers[interviewerNumber] = newInterviewer;\n        }\n        return interviewerNumber;\n    }\n\n    \n    function openNewPosition(uint8 jobType) \n    public onlyIfTalioOwner\n    returns(uint)\n    {\n        Opening memory newOpeninng;\n        \n        newOpeninng.jobType = jobType;\n        newOpeninng.isFilled = false;\n        newOpeninng.numberOfApplicants = 0;\n        \n        openings.push(newOpeninng);\n        \n        return openings.length;\n        \n    }\n    \n    function createNewApplication(uint jobId, uint ssn, string name)\n    internal\n    {\n        applications[jobId].addApplicant(ssn, name);\n        openings[jobId].numberOfApplicants++;\n    }\n    \n    function applyForJob(uint jobId, uint ssn, string name) \n    public\n    ifNotAlreadyAppliedForThisJob(ssn,jobId)\n    ifInterviewersAvailable()\n    {\n        \n        createNewApplication(jobId,ssn,name);\n        \n        applicants[uint(openings[jobId].jobType)].push(ssn);\n        interviewSchedule memory newSchedule;\n        newSchedule.jobId = jobId;\n        newSchedule.ssn = ssn;\n        schedules[openings[jobId].jobType].push(newSchedule);\n        \n        notifyInterviewers(jobId, ssn);\n\n    }\n    \n    // Tansactions for interviewer\n    \n    function sendFeedback(uint jobid, uint ssn, bool isSelected)\n    public \n    onlyIfAuthorizedInterviewer(jobid,ssn)\n    returns(string)\n    {\n       string memory result = \"All interviews are over for this candidate\";\n\n        if (applications[jobid].canAddInterviewFeedback(ssn)) {\n            applications[jobid].addInterviewerResult(ssn,isSelected);\n            result = \"Congratulations, Please wait for next interview\"; // case 1\n            int intResult = applications[jobid].getInterviewResult(ssn);\n            if (intResult < 0) {\n                result = \"Sorry!, Please try your luck again\";\n            } else if (intResult == 2) {\n                result = \"Congratulations, We are happy to offer this job\";\n            }\n            notifyCandidate(jobid,ssn,result);\n        }\n        return result;\n    }\n    \n    function closeOpening(uint jobid)\n    public onlyIfTalioOwner()\n    returns(bool)\n    {\n        openings[jobid].isFilled = true;\n        return openings[jobid].isFilled;\n    }\n    \n    function isEligibleInterviewer(address interviewer)\n    public \n    constant\n    returns(int)\n    {\n         for(uint i=0; i < interviewers.length; i++) {\n              if (interviewers[i] == interviewer) {\n                  return int(i);\n              }\n         }\n         return -1;\n    }\n    \n    function getMaxScheduleCouts(uint jobtype)\n    public\n    constant\n    returns(uint)\n    {\n        return schedules[jobtype].length;\n    }\n    \n    function readSchedule(uint index,uint jobtype)\n    public\n    constant\n    returns(uint jobid, uint ssn)\n    {\n           return(schedules[jobtype][index].jobId,schedules[jobtype][index].ssn);\n    }\n    \n    function readMaxOpenings() \n    public\n    constant\n    returns (uint)\n    {\n        return openings.length;\n    }\n    \n    function readJobDetails(uint jobid)\n    public\n    constant\n    returns(uint8 jobType, bool isFilled, uint numberOfApplicants, uint jid)\n    {\n        require(jobid < openings.length);\n        return(openings[jobid].jobType,openings[jobid].isFilled,openings[jobid].numberOfApplicants, jobid);\n    }\n    \n    function isTalioOwner()\n    public onlyIfTalioOwner()\n    constant\n    returns(bool)\n    {\n        \n        return true;\n    }\n    \n    function isAuthorizedInterviewer(uint8 jobType)\n    public\n    constant\n    returns(bool)\n    {\n        require(interviewers[jobType] == msg.sender);\n        return true;\n    }\n \n}",
  "sourcePath": "/Users/girishadiga/Projects/ethereum/interview-contract/contracts/SimpleTalio.sol",
  "compiler": {
    "name": "solc",
    "version": "0.4.19+commit.c4cbbb05.Emscripten.clang"
  },
  "schemaVersion": "1.0.1",
  "updatedAt": "2018-03-06T16:46:31.018Z"
}