{
  "contractName": "Talio",
  "abi": [
    {
      "constant": true,
      "inputs": [],
      "name": "readMaxOpenings",
      "outputs": [
        {
          "name": "",
          "type": "uint256"
        }
      ],
      "payable": false,
      "stateMutability": "view",
      "type": "function"
    },
    {
      "constant": true,
      "inputs": [
        {
          "name": "jobid",
          "type": "uint256"
        }
      ],
      "name": "readJobDetails",
      "outputs": [
        {
          "name": "jobType",
          "type": "uint8"
        },
        {
          "name": "jobDescription",
          "type": "string"
        },
        {
          "name": "isFilled",
          "type": "bool"
        },
        {
          "name": "numberOfApplicants",
          "type": "uint256"
        }
      ],
      "payable": false,
      "stateMutability": "view",
      "type": "function"
    },
    {
      "constant": true,
      "inputs": [],
      "name": "isTalioOwner",
      "outputs": [
        {
          "name": "",
          "type": "bool"
        }
      ],
      "payable": false,
      "stateMutability": "view",
      "type": "function"
    },
    {
      "constant": false,
      "inputs": [
        {
          "name": "newInterviewer",
          "type": "address"
        },
        {
          "name": "interviewerNumber",
          "type": "uint256"
        }
      ],
      "name": "addInterviewer",
      "outputs": [],
      "payable": false,
      "stateMutability": "nonpayable",
      "type": "function"
    },
    {
      "constant": false,
      "inputs": [
        {
          "name": "jobType",
          "type": "uint8"
        }
      ],
      "name": "openNewPosition",
      "outputs": [],
      "payable": false,
      "stateMutability": "nonpayable",
      "type": "function"
    },
    {
      "constant": false,
      "inputs": [
        {
          "name": "jobid",
          "type": "uint256"
        },
        {
          "name": "ssn",
          "type": "uint256"
        },
        {
          "name": "isSelected",
          "type": "bool"
        }
      ],
      "name": "sendFeedback",
      "outputs": [
        {
          "name": "",
          "type": "string"
        }
      ],
      "payable": false,
      "stateMutability": "nonpayable",
      "type": "function"
    },
    {
      "constant": false,
      "inputs": [
        {
          "name": "jobId",
          "type": "uint256"
        },
        {
          "name": "ssn",
          "type": "uint256"
        },
        {
          "name": "name",
          "type": "string"
        }
      ],
      "name": "applyForJob",
      "outputs": [],
      "payable": false,
      "stateMutability": "nonpayable",
      "type": "function"
    },
    {
      "constant": true,
      "inputs": [
        {
          "name": "jobType",
          "type": "uint8"
        }
      ],
      "name": "isAuthorizedInterviewer",
      "outputs": [
        {
          "name": "",
          "type": "bool"
        }
      ],
      "payable": false,
      "stateMutability": "view",
      "type": "function"
    },
    {
      "inputs": [],
      "payable": false,
      "stateMutability": "nonpayable",
      "type": "constructor"
    },
    {
      "anonymous": false,
      "inputs": [
        {
          "indexed": false,
          "name": "jobId",
          "type": "uint256"
        },
        {
          "indexed": false,
          "name": "ssn",
          "type": "uint256"
        }
      ],
      "name": "notifyInterviewers",
      "type": "event"
    },
    {
      "anonymous": false,
      "inputs": [
        {
          "indexed": false,
          "name": "jobId",
          "type": "uint256"
        },
        {
          "indexed": false,
          "name": "ssn",
          "type": "uint256"
        },
        {
          "indexed": false,
          "name": "result",
          "type": "string"
        }
      ],
      "name": "notifyCandidate",
      "type": "event"
    }
  ],
  "bytecode": "0x6060604052341561000f57600080fd5b336000806101000a81548173ffffffffffffffffffffffffffffffffffffffff021916908373ffffffffffffffffffffffffffffffffffffffff1602179055506113af8061005e6000396000f30060606040526004361061008e576000357c0100000000000000000000000000000000000000000000000000000000900463ffffffff1680631f324d58146100935780633b06038b146100bc57806350a1f3391461017757806354cedeb6146101a4578063613d6fbb146101e65780636772ed711461020c578063e5b870e4146102bc578063f27d7de71461032b575b600080fd5b341561009e57600080fd5b6100a6610369565b6040518082815260200191505060405180910390f35b34156100c757600080fd5b6100dd6004808035906020019091905050610376565b604051808560ff1660ff1681526020018060200184151515158152602001838152602001828103825285818151815260200191508051906020019080838360005b8381101561013957808201518184015260208101905061011e565b50505050905090810190601f1680156101665780820380516001836020036101000a031916815260200191505b509550505050505060405180910390f35b341561018257600080fd5b61018a6105c4565b604051808215151515815260200191505060405180910390f35b34156101af57600080fd5b6101e4600480803573ffffffffffffffffffffffffffffffffffffffff16906020019091908035906020019091905050610628565b005b34156101f157600080fd5b61020a600480803560ff1690602001909190505061078b565b005b341561021757600080fd5b610241600480803590602001909190803590602001909190803515159060200190919050506108b4565b6040518080602001828103825283818151815260200191508051906020019080838360005b83811015610281578082015181840152602081019050610266565b50505050905090810190601f1680156102ae5780820380516001836020036101000a031916815260200191505b509250505060405180910390f35b34156102c757600080fd5b610329600480803590602001909190803590602001909190803590602001908201803590602001908080601f01602080910402602001604051908101604052809392919081815260200183838082843782019150505050505091905050610dbd565b005b341561033657600080fd5b61034f600480803560ff16906020019091905050610fda565b604051808215151515815260200191505060405180910390f35b6000600280549050905090565b60006103806111c6565b60008061038b6111c6565b6002805490508610151561039e57600080fd5b6040805190810160405280600d81526020017f694f5320446576656c6f706572000000000000000000000000000000000000008152509050600280878154811015156103e657fe5b906000526020600020900160000160009054906101000a900460ff1660ff161415610448576040805190810160405280601181526020017f416e64726f696420446576656c6f706572000000000000000000000000000000815250905061052c565b600360028781548110151561045957fe5b906000526020600020900160000160009054906101000a900460ff1660ff1614156104bb576040805190810160405280600e81526020017f4a61766120446576656c6f706572000000000000000000000000000000000000815250905061052b565b60046002878154811015156104cc57fe5b906000526020600020900160000160009054906101000a900460ff1660ff16141561052a576040805190810160405280601481526020017f426c6f636b636861696e20446576656c6f70657200000000000000000000000081525090505b5b5b60028681548110151561053b57fe5b906000526020600020900160000160009054906101000a900460ff168160028881548110151561056757fe5b906000526020600020900160000160019054906101000a900460ff1660028981548110151561059257fe5b906000526020600020900160000160029054906101000a900460ff168060ff1690509450945094509450509193509193565b60008060009054906101000a900473ffffffffffffffffffffffffffffffffffffffff1673ffffffffffffffffffffffffffffffffffffffff163373ffffffffffffffffffffffffffffffffffffffff1614151561062157600080fd5b6001905090565b6000809054906101000a900473ffffffffffffffffffffffffffffffffffffffff1673ffffffffffffffffffffffffffffffffffffffff163373ffffffffffffffffffffffffffffffffffffffff1614151561068357600080fd5b80600380549050811115151561069857600080fd5b600081101515156106a857600080fd5b6005811015156106b757600080fd5b60038054905082141561072c57600380548060010182816106d891906111da565b9160005260206000209001600085909190916101000a81548173ffffffffffffffffffffffffffffffffffffffff021916908373ffffffffffffffffffffffffffffffffffffffff16021790555050610786565b8260038381548110151561073c57fe5b906000526020600020900160006101000a81548173ffffffffffffffffffffffffffffffffffffffff021916908373ffffffffffffffffffffffffffffffffffffffff1602179055505b505050565b610793611206565b6000809054906101000a900473ffffffffffffffffffffffffffffffffffffffff1673ffffffffffffffffffffffffffffffffffffffff163373ffffffffffffffffffffffffffffffffffffffff161415156107ee57600080fd5b81816000019060ff16908160ff168152505060008160200190151590811515815250506000816040019060ff16908160ff1681525050600280548060010182816108389190611230565b9160005260206000209001600083909190915060008201518160000160006101000a81548160ff021916908360ff16021790555060208201518160000160016101000a81548160ff02191690831515021790555060408201518160000160026101000a81548160ff021916908360ff1602179055505050505050565b6108bc6111c6565b6108c46111c6565b600085853373ffffffffffffffffffffffffffffffffffffffff1660036002848154811015156108f057fe5b906000526020600020900160000160009054906101000a900460ff1660ff1681548110151561091b57fe5b906000526020600020900160009054906101000a900473ffffffffffffffffffffffffffffffffffffffff1673ffffffffffffffffffffffffffffffffffffffff1614151561096957600080fd5b606060405190810160405280602a81526020017f416c6c20696e746572766965777320617265206f76657220666f72207468697381526020017f2063616e6469646174650000000000000000000000000000000000000000000081525093506001600089815260200190815260200160002073__Set___________________________________633ddba4fa9091896000604051602001526040518363ffffffff167c0100000000000000000000000000000000000000000000000000000000028152600401808381526020018281526020019250505060206040518083038186803b1515610a5757600080fd5b6102c65a03f41515610a6857600080fd5b5050506040518051905015610daf576001600089815260200190815260200160002073__Set___________________________________6320be1591909189896040518463ffffffff167c01000000000000000000000000000000000000000000000000000000000281526004018084815260200183815260200182151515158152602001935050505060006040518083038186803b1515610b0957600080fd5b6102c65a03f41515610b1a57600080fd5b505050606060405190810160405280602f81526020017f436f6e67726174756c6174696f6e732c20506c65617365207761697420666f7281526020017f206e65787420696e74657276696577000000000000000000000000000000000081525093506001600089815260200190815260200160002073__Set___________________________________63e0fe70ab9091896000604051602001526040518363ffffffff167c0100000000000000000000000000000000000000000000000000000000028152600401808381526020018281526020019250505060206040518083038186803b1515610c0b57600080fd5b6102c65a03f41515610c1c57600080fd5b5050506040518051905060000b92506000831215610c9857606060405190810160405280602281526020017f536f727279212c20506c656173652074727920796f7572206c75636b2061676181526020017f696e0000000000000000000000000000000000000000000000000000000000008152509350610d02565b6002831415610d0157606060405190810160405280602f81526020017f436f6e67726174756c6174696f6e732c2057652061726520686170707920746f81526020017f206f666665722074686973206a6f62000000000000000000000000000000000081525093505b5b7fd1d08c9cb88ed24b0d3e225c43806559dd407e6d3414e1072ab4cdd13dfac2308888866040518084815260200183815260200180602001828103825283818151815260200191508051906020019080838360005b83811015610d72578082015181840152602081019050610d57565b50505050905090810190601f168015610d9f5780820380516001836020036101000a031916815260200191505b5094505050505060405180910390a15b839450505050509392505050565b610dc561125c565b82846001600082815260200190815260200160002073__Set___________________________________63f4dcaabb9091846000604051602001526040518363ffffffff167c0100000000000000000000000000000000000000000000000000000000028152600401808381526020018281526020019250505060206040518083038186803b1515610e5657600080fd5b6102c65a03f41515610e6757600080fd5b50505060405180519050151515610e7d57600080fd5b6000600380549050111515610e9157600080fd5b610e9c86868661105c565b6005600287815481101515610ead57fe5b906000526020600020900160000160009054906101000a900460ff1660ff16600581101515610ed857fe5b018054806001018281610eeb9190611276565b916000526020600020900160008790919091505550858360000181815250508483602001818152505060046000600288815481101515610f2757fe5b906000526020600020900160000160009054906101000a900460ff1660ff1681526020019081526020016000208054806001018281610f6691906112a2565b9160005260206000209060020201600085909190915060008201518160000155602082015181600101555050507f3af00243139f061d8a124edf9a44153feb59f36f61b66cadf9e5f3d30d3e81a58686604051808381526020018281526020019250505060405180910390a1505050505050565b60003373ffffffffffffffffffffffffffffffffffffffff1660038360ff1681548110151561100557fe5b906000526020600020900160009054906101000a900473ffffffffffffffffffffffffffffffffffffffff1673ffffffffffffffffffffffffffffffffffffffff1614151561105357600080fd5b60019050919050565b6001600084815260200190815260200160002073__Set___________________________________635ce77167909184846000604051602001526040518463ffffffff167c01000000000000000000000000000000000000000000000000000000000281526004018084815260200183815260200180602001828103825283818151815260200191508051906020019080838360005b8381101561110d5780820151818401526020810190506110f2565b50505050905090810190601f16801561113a5780820380516001836020036101000a031916815260200191505b5094505050505060206040518083038186803b151561115857600080fd5b6102c65a03f4151561116957600080fd5b505050604051805190505060028381548110151561118357fe5b9060005260206000209001600001600281819054906101000a900460ff168092919060010191906101000a81548160ff021916908360ff16021790555050505050565b602060405190810160405280600081525090565b8154818355818115116112015781836000526020600020918201910161120091906112d4565b5b505050565b606060405190810160405280600060ff168152602001600015158152602001600060ff1681525090565b8154818355818115116112575781836000526020600020918201910161125691906112f9565b5b505050565b604080519081016040528060008152602001600081525090565b81548183558181151161129d5781836000526020600020918201910161129c91906112d4565b5b505050565b8154818355818115116112cf576002028160020283600052602060002091820191016112ce9190611354565b5b505050565b6112f691905b808211156112f25760008160009055506001016112da565b5090565b90565b61135191905b8082111561134d57600080820160006101000a81549060ff02191690556000820160016101000a81549060ff02191690556000820160026101000a81549060ff0219169055506001016112ff565b5090565b90565b61138091905b8082111561137c5760008082016000905560018201600090555060020161135a565b5090565b905600a165627a7a7230582091efbe57dbd73b8329c438633163f4adda4c25b1f82226a91638e063d8d7d0dd0029",
  "source": "pragma solidity ^0.4.18;\n\nlibrary Set {\n    \n    struct Data \n    { \n        string applicantName;\n        bool isApplied;\n        bool isInterViewPassed;\n        uint8 interviewCounts;\n    }\n    \n    struct ApplicantData { mapping(uint => Data) flags; }\n\n    \n    function addApplicant(ApplicantData storage self, uint ssn,string name)\n    public \n    returns (bool)\n    {\n        if (self.flags[ssn].isApplied) \n            return false; // Data present here\n        self.flags[ssn].isApplied = true;\n        self.flags[ssn].applicantName = name;\n        self.flags[ssn].isInterViewPassed = false;\n        self.flags[ssn].interviewCounts = 0;\n        return true;\n    }\n    \n    function addInterviewerResult(ApplicantData storage self,uint ssn, bool result)\n    public\n    {\n        self.flags[ssn].isInterViewPassed = result;\n    }\n    \n    function canAddInterviewFeedback(ApplicantData storage self,uint ssn) \n    public\n    constant\n    returns (bool)\n    {\n        if (self.flags[ssn].isApplied) {\n            // max only 2 interview possible else throw\n            require(self.flags[ssn].interviewCounts < 2); \n                // No previous interviews are failed\n                if (self.flags[ssn].interviewCounts > 0) {\n                    require (self.flags[ssn].isInterViewPassed); \n                }\n                return true;\n        }\n        return false;\n    }\n\n    function getInterviewResult(ApplicantData storage self,uint ssn)\n    public\n    constant returns(int8)\n    {\n        uint intCount = self.flags[ssn].interviewCounts;\n        if (intCount == 0) {\n            return 0; // Interviews pending\n        } else if (intCount == 1) {\n            if (self.flags[ssn].isInterViewPassed) {\n                return 1; // to next level\n            }\n            return -1; // Fail\n        } else {\n            if (self.flags[ssn].isInterViewPassed) {\n                return 2; // selected\n            }\n            return -2; // Candidate rejected in second interview\n        }\n    }\n\n    function contains(ApplicantData storage self, uint ssn) \n    public \n    constant returns (bool)\n    {\n        return self.flags[ssn].isApplied;\n    }\n}\n\ncontract Talio {\n    \n    event notifyInterviewers(uint jobId, uint ssn);\n    event notifyCandidate(uint jobId, uint ssn, string result);\n    \n    uint constant maxJobTypes = 5;\n    address talioOwner;\n    \n    // Only once a candidate can apply for a position\n    using Set for Set.ApplicantData;\n    mapping(uint => Set.ApplicantData) applications;\n\n    // Structure job openings  in the company\n    struct Opening {\n        uint8 jobType;\n        bool isFilled;\n        uint8 numberOfApplicants;\n    }\n    \n    struct interviewSchedule {\n        uint jobId;\n        uint ssn;\n    }\n    \n    Opening[] openings;\n    address[] interviewers;\n    \n    mapping(uint => interviewSchedule[]) schedules;\n    // Max 5 types of jobs \n    uint[][maxJobTypes] applicants; // !! Note Opposite way of declaring !! \n\n    modifier onlyIfTalioOwner() {\n        require(msg.sender == talioOwner);\n        _;\n    }\n    \n    modifier ifNotAlreadyAppliedForThisJob(uint ssn, uint jobId) {\n        require(!applications[jobId].contains(ssn));\n        _;\n    }\n    \n    modifier ifInterviewersAvailable() {\n        require(interviewers.length > 0);\n        _;\n    }\n    \n    modifier ifInterviewerNumberAvailable(uint position) {\n        require(position <= interviewers.length );\n        require(position >= 0 );\n        require(position < maxJobTypes); // MAX number of possible interviewers (1 per job type)\n        _;\n    }\n    \n    modifier onlyIfAuthorizedInterviewer(uint jobId, uint ssn) {\n        // Assumption : Same person will interview twice\n         require (interviewers[openings[jobId].jobType] == msg.sender);\n        _;\n    }    \n    \n    function Talio() \n    public\n    {\n        talioOwner = msg.sender;\n    }\n    \n    function addInterviewer(address newInterviewer, uint interviewerNumber) public\n    onlyIfTalioOwner()\n    ifInterviewerNumberAvailable(interviewerNumber)\n    {\n        if (interviewerNumber == interviewers.length)\n        {\n            interviewers.push(newInterviewer);\n        }\n        else\n        {\n            interviewers[interviewerNumber] = newInterviewer;\n        }\n    }\n\n    \n    function openNewPosition(uint8 jobType) \n    public onlyIfTalioOwner\n    {\n        Opening memory newOpeninng;\n        \n        newOpeninng.jobType = jobType;\n        newOpeninng.isFilled = false;\n        newOpeninng.numberOfApplicants = 0;\n        \n        openings.push(newOpeninng);\n        \n    }\n    \n    function createNewApplication(uint jobId, uint ssn, string name)\n    internal\n    {\n        applications[jobId].addApplicant(ssn, name);\n        openings[jobId].numberOfApplicants++;\n    }\n    \n    function applyForJob(uint jobId, uint ssn, string name) \n    public\n    ifNotAlreadyAppliedForThisJob(ssn,jobId)\n    ifInterviewersAvailable()\n    {\n        \n        createNewApplication(jobId,ssn,name);\n        \n        applicants[uint(openings[jobId].jobType)].push(ssn);\n        interviewSchedule memory newSchedule;\n        newSchedule.jobId = jobId;\n        newSchedule.ssn = ssn;\n        schedules[openings[jobId].jobType].push(newSchedule);\n        \n        notifyInterviewers(jobId, ssn);\n\n    }\n    \n    // Tansactions for interviewer\n    \n    function sendFeedback(uint jobid, uint ssn, bool isSelected)\n    public \n    onlyIfAuthorizedInterviewer(jobid,ssn)\n    returns(string)\n    {\n       string memory result = \"All interviews are over for this candidate\";\n\n        if (applications[jobid].canAddInterviewFeedback(ssn)) {\n            applications[jobid].addInterviewerResult(ssn,isSelected);\n            result = \"Congratulations, Please wait for next interview\"; // case 1\n            int intResult = applications[jobid].getInterviewResult(ssn);\n            if (intResult < 0) {\n                result = \"Sorry!, Please try your luck again\";\n            } else if (intResult == 2) {\n                result = \"Congratulations, We are happy to offer this job\";\n            }\n            notifyCandidate(jobid,ssn,result);\n        }\n        return result;\n    }\n    \n    function readMaxOpenings() \n    public\n    constant\n    returns (uint)\n    {\n        return openings.length;\n    }\n    \n    function readJobDetails(uint jobid)\n    public\n    constant\n    returns(uint8 jobType, string jobDescription, bool isFilled, uint numberOfApplicants)\n    {\n        require(jobid < openings.length);\n        string memory desc = \"iOS Developer\"; // if job type is 1!\n        if (openings[jobid].jobType == 2) {\n            desc = \"Android Developer\";\n        } else if (openings[jobid].jobType == 3) {\n            desc = \"Java Developer\";\n        } else if (openings[jobid].jobType == 4) {\n          desc = \"Blockchain Developer\";\n        }\n        \n        return(openings[jobid].jobType,desc,openings[jobid].isFilled,openings[jobid].numberOfApplicants);\n    }\n    \n    function isTalioOwner()\n    public onlyIfTalioOwner()\n    constant\n    returns(bool)\n    {\n        return true;\n    }\n    \n    function isAuthorizedInterviewer(uint8 jobType)\n    public\n    constant\n    returns(bool)\n    {\n        require(interviewers[jobType] == msg.sender);\n        return true;\n    }\n \n}",
  "sourcePath": "/Users/girishadiga/Projects/ethereum/talio/contracts/SimpleTalio.sol",
  "compiler": {
    "name": "solc",
    "version": "0.4.19+commit.c4cbbb05.Emscripten.clang"
  },
  "schemaVersion": "1.0.1",
  "updatedAt": "2018-02-15T16:35:08.863Z"
}